:100000000C9463000C948B000C948B000C948B006C
:100010000C948B000C948B000C948B000C948B0034
:100020000C948B000C948B000C948B000C94260584
:100030000C948B000C948B000C948B000C948B0014
:100040000C94DC040C948B000C948B000C948B00AF
:100050000C948B000C948B000C948B000C948B00F4
:100060000C948B000C948B000000000024002700EF
:100070002A0000000000250028002B0000000000DE
:1000800023002600290004040404040404040202DA
:100090000202020203030303030301020408102007
:1000A0004080010204081020010204081020000012
:1000B0000008000201000003040700000000000027
:1000C0000000CE08890911241FBECFEFD8E0DEBFA3
:1000D000CDBF11E0A0E0B1E0ECE9F8E102C005908D
:1000E0000D92A03AB107D9F722E0A0EAB1E001C031
:1000F0001D92AB36B207E1F710E0C2E6D0E004C0D3
:100100002197FE010E94400AC136D107C9F70E941B
:10011000E2050C94410C0C9400008F929F92AF92D8
:10012000BF92FF920F931F93CF93DF93F0904C02F7
:100130002BE02F1508F44CC020914E0208E512E088
:10014000021B110927FD1395000F111F000F111F2E
:1001500020914D02C8E8D0E0C21BD10927FDD395FC
:10016000CC0FDD1FCC0FDD1F4E010D2E000CAA0899
:10017000BB089801012E000C440B550B28193909B6
:100180004A095B09DC010E94C40924EB30E040E02D
:1001900050E00E949A09820E931EA41EB51E8C1672
:1001A0009D062CF0E801801691060CF4E4012297DC
:1001B000CC0FDD1F2FB7F8948F2D90E0FC01EE0FD0
:1001C000FF1FE80FF91FE85DFD4FD283C1832FBFEA
:1001D000DF91CF911F910F91FF90BF90AF909F90B3
:1001E0008F90089596E0899FD0011124A754BE4FA7
:1001F00090967C936E935F9791E091969C939197E4
:10020000E0912602F091270290912502992339F07E
:10021000309751F0811108C08091D5010994309731
:1002200019F05C968C91FACF0895CF92DF92EF92FD
:10023000FF920F931F9396E0899FF0011124E754DA
:10024000FE4F11A2278D30A12130310551F178F0F8
:100250002230310509F451C02330310509F452C070
:100260001F910F91FF90EF90DF90CF90089566233C
:10027000B9F361E070E00E94F2002FB7F89480912A
:10028000B5019091B601A091B701B091B8012FBF0F
:100290008093110290931202A0931302B093140260
:1002A000DFCF9FB7F894C090B501D090B601E09031
:1002B000B701F090B8019FBF009111021091120296
:1002C0002091130230911402C01AD10AE20AF30AF3
:1002D000009123021091240230E020E00C151D054E
:1002E0002E053F0550F462E070E01F910F91FF90E2
:1002F000EF90DF90CF900C94F2006111B1CF63E0EA
:1003000070E0F3CF70E060E0F0CF833081F028F44C
:10031000813099F08230A9F008958730A9F08830B3
:10032000C9F08430B1F4809180008F7D03C080914A
:1003300080008F7780938000089584B58F7784BD87
:10034000089584B58F7DFBCF8091B0008F77809327
:10035000B00008958091B0008F7DF9CFCF93DF93E7
:10036000282F30E0F901E255FF4F8491F901E6565C
:10037000FF4FD491F901EA57FF4FC491CC23A1F06C
:1003800081110E948501EC2FF0E0EE0FFF1FE45871
:10039000FF4FA591B491EC91ED2381E090E009F439
:1003A00080E0DF91CF91089580E090E0FACF1F9335
:1003B000CF93DF93282F30E0F901E255FF4F84916E
:1003C000F901E656FF4FD491F901EA57FF4FC49166
:1003D000CC23A9F0162F81110E948501EC2FF0E0AB
:1003E000EE0FFF1FEE58FF4FA591B4918FB7F89411
:1003F000EC91111108C0D095DE23DC938FBFDF9103
:10040000CF911F910895DE2BF8CFCF93DF9390E02B
:10041000FC01E656FF4F24918A579F4FFC018491BF
:100420008823C9F090E0880F991FFC01E859FF4F1D
:10043000A591B491FC01EE58FF4FC591D491611183
:100440000DC09FB7F8948C91209582238C9388815E
:10045000282328839FBFDF91CF910895623051F404
:100460009FB7F8943C91822F809583238C93E881E9
:100470002E2BEFCF8FB7F894EC912E2B2C938FBFB0
:10048000EACF3FB7F8948091B1019091B201A09169
:10049000B301B091B40126B5A89B05C02F3F19F058
:1004A0000196A11DB11D3FBFBA2FA92F982F8827F4
:1004B000BC01CD01620F711D811D911D42E0660FCF
:1004C000771F881F991F4A95D1F708958F929F92A1
:1004D000AF92BF92CF92DF92EF92FF924B015C01FD
:1004E0000E9441026B017C010E9441026C197D094E
:1004F0008E099F09683E734081059105A8F321E0AC
:10050000821A9108A108B10888EEC80E83E0D81EAF
:10051000E11CF11C81149104A104B10429F7FF909E
:10052000EF90DF90CF90BF90AF909F908F90089505
:10053000862F642F0C940502862F642F0C94D7010C
:10054000862F0C94AE01AF92BF92CF92DF92EF92C2
:10055000FF920F931F93CF93DF936C017B018B016D
:10056000040F151FEB015E01AE18BF08C017D107BD
:1005700059F06991D601ED91FC910190F081E02D47
:10058000C6010995892B79F7C501DF91CF911F919C
:100590000F91FF90EF90DF90CF90BF90AF900895B4
:1005A000089590E080E008958F929F92AF92BF925D
:1005B0000F931F93CF93DF93CDB7DEB7A1970FB6FD
:1005C000F894DEBF0FBECDBF19A2423008F44AE056
:1005D0008E010F5D1F4F842E912CB12CA12CA501F3
:1005E00094010E94030AE62FB901CA01EA3044F5DA
:1005F000E05DD801EE938D01232B242B252B79F779
:1006000090E080E0109769F0FD0101900020E9F78B
:100610003197AF014A1B5B0BBD018FE492E00E9452
:10062000A302A1960FB6F894DEBF0FBECDBFDF9137
:10063000CF911F910F91BF90AF909F908F90089591
:10064000E95CD7CFFC0101900020E9F73197AF01B9
:10065000481B590BBC018FE492E00C94A302CF938A
:10066000DF93EC0160E08E810E94D70161E08E8112
:100670000E94D70160E08E810E94D7018BE891E053
:100680000197F1F7DF91CF910895CF92DF92EF922A
:10069000FF920F931F93CF93DF936C017C0187E050
:1006A000E80EF11CD0E0C0E0062F10E0B8010C2EDF
:1006B00002C0759567950A94E2F76170F701819120
:1006C0007F010E94D7012196C430D10579F7C60178
:1006D000DF91CF911F910F91FF90EF90DF90CF901E
:1006E0000C942F03CF92DF92EF92FF920F931F9300
:1006F000CF93DF93EC01F62E642F8C810E94D701FB
:100700008D818F3F19F060E00E94D7010F2D10E01E
:100710008F8584FF25C06E0187E0C80ED11CF12CA7
:10072000E12CB8010E2C02C0759567950A94E2F78A
:100730006170F60181916F010E94D701FFEFEF1AFE
:10074000FF0A88E0E816F10461F7CE01DF91CF914E
:100750001F910F91FF90EF90DF90CF900C942F039B
:10076000B80184E0759567958A95E1F7CE010E94FE
:1007700045036F2DCE01DF91CF911F910F91FF9017
:10078000EF90DF90CF900C94450340E0682F8FE40A
:1007900092E00C94720381E00E94C5038BE39FE119
:1007A0000197F1F70895CF93DF93823029F4909168
:1007B0005E02986090935E028093620210926302E0
:1007C00080E48093640280E18093650280E58093F9
:1007D000660261E0809153020E94050280915402FA
:1007E0008F3F19F061E00E94050261E0809155029F
:1007F0000E940502CFE4D2E09E012F543240809146
:100800005E0284FD0BC084E090E021962817390732
:1008100044F461E08E810E940502EECF88E090E012
:10082000F4CF8BE39DE00197F1F760E080915302F4
:100830000E94D70160E0809155020E94D70180910B
:1008400054028F3F19F060E00E94D70180915E0250
:1008500084FD34C063E08FE492E00E944503CBE462
:10086000D6E4CE010197F1F763E08FE492E00E94B5
:1008700045032197F1F763E08FE492E00E9445037E
:1008800083E592E00197F1F762E08FE492E00E9445
:10089000450380915E0280620E94C50384E08093DC
:1008A0005F028CE00E94C5030E94CB0382E080932C
:1008B000600286E0DF91CF910C94C50380620E94B4
:1008C000C5038BE496E40197F1F780915E028062A4
:1008D0000E94C50383E592E00197F1F780915E02E3
:1008E00080620E94C503D5CFE0916202E23048F4F5
:1008F000E150F0E0E15BFD4F9489890F80680C9432
:10090000C503E1E0F6CF41E00E94720381E090E090
:1009100008950F931F93CF93DF93EC018881998102
:10092000009759F02A813B812617370730F081E084
:10093000DF91CF911F910F9108958B016F5F7F4FD2
:100940000E946B0B009759F0998388831B830A835D
:100950002C813D81232B59F7FC011082E8CF80E0E8
:10096000E7CFEF92FF920F931F93CF93DF93EC01AA
:100970007B018A01BA010E94890428813981811191
:1009800014C02115310519F0C9010E94E20A19822B
:1009900018821D821C821B821A82CE01DF91CF91A8
:1009A0001F910F91FF90EF9008951D830C83B70165
:1009B000C9010E943A0CF1CF1F920F920FB60F920D
:1009C00011242F933F938F939F93AF93BF93809165
:1009D000B5019091B601A091B701B091B8013091E5
:1009E000B00123E0230F2D3758F50196A11DB11D4D
:1009F0002093B0018093B5019093B601A093B70105
:100A0000B093B8018091B1019091B201A091B3016E
:100A1000B091B4010196A11DB11D8093B1019093D5
:100A2000B201A093B301B093B401BF91AF919F9174
:100A30008F913F912F910F900FBE0F901F9018959F
:100A400026E8230F0296A11DB11DD2CF1F920F924F
:100A50000FB60F9211242F933F934F935F936F9391
:100A60007F938F939F93AF93BF93CF93DF93EF9336
:100A7000FF938091A101C091A001D0E087FF24C025
:100A800010928500109284008091A1018F5F809365
:100A9000A1018091A101082E000C990B8C179D07D4
:100AA00024F48091A1018C30C4F180918400909154
:100AB0008500049680349C4908F47AC080918400B3
:100AC00090918500049676C08091A101082E000CBB
:100AD000990B8C179D07C4F6E091A1018E2FEE0FA4
:100AE000990BFC01EE0FFF1FE80FF91FE85DFD4FAA
:100AF000808186FFC9CFE091A1018E2FEE0F990B67
:100B0000FC01EE0FFF1FE80FF91FE85DFD4F80812C
:100B100060E08F730E94D701B7CF2091840030919D
:100B20008500E091A1018E2FEE0F990BFC01EE0FD5
:100B3000FF1FE80FF91FE85DFD4F81819281820F51
:100B4000931F9093890080938800E091A1018E2FDC
:100B5000EE0F990BFC01EE0FFF1FE80FF91FE85D88
:100B6000FD4F808186FF11C0E091A1018E2FEE0F15
:100B7000990BFC01EE0FFF1FE80FF91FE85DFD4F19
:100B8000808161E08F730E94D701FF91EF91DF9127
:100B9000CF91BF91AF919F918F917F916F915F9115
:100BA0004F913F912F910F900FBE0F901F9018956E
:100BB00080E49CE990938900809388008FEF809374
:100BC000A101E3CFCF93DF9300D0CDB7DEB7789408
:100BD00084B5826084BD84B5816084BD85B5826042
:100BE00085BD85B5816085BD80916E0081608093F3
:100BF0006E0010928100809181008260809381005C
:100C0000809181008160809381008091800081606B
:100C1000809380008091B10084608093B1008091C6
:100C2000B00081608093B00080917A0084608093EE
:100C30007A0080917A00826080937A0080917A00B5
:100C4000816080937A0080917A00806880937A0036
:100C50001092C10082E00E94D30380914C028C303C
:100C600008F051C061E089E00E94050280914C02C9
:100C7000282F30E0F901EE0FFF1FE20FF31FE85DB0
:100C8000FD4F9081907C9960908310924D0210925C
:100C90004E022CE0622F0E94340A829FB001112480
:100CA00030E020E0AB01420F531FFA01EE0FFF1FAF
:100CB000E40FF51FE85DFD4F908196FD16C02F5F94
:100CC0003F4F2C30310571F781110FC01092800019
:100CD00082E0809381001092850010928400B19A86
:100CE00080916F00826080936F00E0914C028E2FA4
:100CF00090E0FC01EE0FFF1FE80FF91FE85DFD4FCC
:100D000080818064808390E080E00E948D008FE28B
:100D100091E00E942203412C512C3201439440E087
:100D2000A42E40E0B42E51E0509325028FB7F894E2
:100D30004091B5015091B6016091B7017091B80131
:100D40008FBF8091150290911602A0911702B09169
:100D50001802481B590B6A0B7B0B80912102909162
:100D60002202B0E0A0E084179507A607B70708F0B5
:100D70001BC110E080911F02181760F4E0911B0264
:100D8000F0911C02E10FF11D62E080810E940502DA
:100D90001F5FF0CF312C80912002381608F061C01F
:100DA000E32CF12CE0911D02F0911E02EE0DFF1DCF
:100DB00061E080810E940502E0911D02F0911E0217
:100DC000EE0DFF1D60E080810E94D701D301C201BA
:100DD000032C04C0880F991FAA1FBB1F0A94D2F7C7
:100DE0004C016C01C094D094212C80911F022816D4
:100DF00008F5022D10E0E0911B02F0911C02E00FBB
:100E0000F11F80810E94AE010C5F1F4F000F111F68
:100E1000F801E754FE4F892B41F4808191818829A4
:100E20009929918380832394E0CF808191818C21C3
:100E30009D21F7CFE0911D02F0911E02EE0DFF1DE6
:100E400061E080810E94D70180911D0290911E0275
:100E5000E80EF91E60E0F70180810E9405023394DC
:100E60009ACF09EB11E07801F701878D90A1892BCA
:100E700031F4148E8FEF9FEF968F858F11A296E03D
:100E8000E90EF11CE5EFF1E0EE15FF0569F7D12C55
:100E900080911F02D81608F053C0C12C8D2C912CC4
:100EA000880C991CC4018F539E4F4C012091200245
:100EB000C21608F043C0F401608171810C2C02C09D
:100EC000769567950A94E2F7D29E900111242C0D35
:100ED000311DE9EBF1E080E0458D568D2417350793
:100EE00009F425C18F5F36968A30B1F760FF24C0C0
:100EF000E9EBF1E090E080E0448D411118C0E09111
:100F00001902F0911A02E20FF31F408156E0589F38
:100F1000F001599FF00D1124E754FE4F448F368F96
:100F2000258F10A2178E61E00E94150105C0019661
:100F300036968A30910501F7C394B8CFD394A8CFE1
:100F400080E0F80191A19111892F0A5F1F4F0E15C2
:100F50001F05B9F79FB7F8944091B5015091B601BC
:100F60006091B7017091B8019FBF409315025093F3
:100F7000160260931702709318028823A9F08091DB
:100F8000DA01882389F08091D8019091D9010197E5
:100F900059F48091D50181110AC0A114B10409F45A
:100FA000C2CE0E940000BFCE10922502F6CF8A3238
:100FB00079F450E040E06FE371E08AEA91E00E944A
:100FC000B1040E94CB038FE291E00E942203E5CF9F
:100FD0000091AE011091AF01833209F082C02091DF
:100FE000A8013091A90120173107C1F48091AA010D
:100FF0009091AB016091A4017091A501009709F453
:1010000098C06115710539F4012B09F4A0C0FC01E9
:10101000808190E099C00E94310C96C00E94CB0361
:1010200080E691E00E94220380E00E94740480E741
:1010300091E00E942203C090A201D090A301FFEF93
:10104000CF1ADF0A0D2C000CEE08FF084AE0C7019A
:10105000B601F7FE0EC041E06DE28FE492E00E941F
:10106000720366277727CB016C197D098E099F09CA
:101070004AE00E94D40260ED77E080E090E00E94B8
:1010800066020E94CB0380E591E00E9422038091DA
:10109000A2019091A30101969093A3018093A201D4
:1010A00003970CF472C00E94CB038BE791E00E947F
:1010B000220380E00E9474048AE891E00E942203E7
:1010C00060E375E780E090E00E9466021092A30161
:1010D0001092A2010E94CB0380E591E00E942203BE
:1010E00054C089831A820F5F1F4FB8018AEA91E0CA
:1010F0000E948904882399F02091AA013091AB01C4
:101100008091AE019091AF01BE016F5F7F4F820F62
:10111000931F0E943A0C1093AF010093AE0180918F
:10112000AE0181500E94740489E991E04ECF617054
:10113000FBCE6115710559F0232B49F0FB0180812D
:1011400090E0919581959109892B09F067CF8AE507
:1011500090E00E948D000E94CB0380E491E00E9409
:10116000220368EB7BE080E090E00E94660290E062
:1011700080E00E948D000E94CB0380E591E00E94F8
:1011800022031092A3011092A20150E040E06FE30D
:1011900071E08AEA91E00E94B104FFCECF931092F1
:1011A00052021092510287E291E090935002809394
:1011B0004F0282E180935302CFEFC093540283E148
:1011C0008093550281E18093560280E1809357021B
:1011D0008FE0809358028EE08093590210925A0259
:1011E00010925B0210925C0210925D0210925E02FD
:1011F00081E00E94D3038091A0018C3008F086C06A
:1012000091E0980F9093A00180934C0290E0FC0134
:10121000EE0FFF1FE80FF91FE85DFD4F88EB9BE025
:10122000928381831092BB011092BF011092BE0184
:101230001092C0018DE191E09093BA018093B901C1
:10124000E5EDF1E01082148213821582369682E079
:10125000E131F807B9F783E091E090931C028093A5
:101260001B0280E091E090931E0280931D0284E0B7
:1012700080931F0283E08093200287E091E09093A7
:101280001A02809319028AE090E0909322028093E0
:10129000210284EF91E09093240280932302109224
:1012A0002702109226021092150210921602109236
:1012B000170210921802109225021092A5011092A6
:1012C000A4011092A7011092A6011092A9011092F8
:1012D000A80144E050E06BE971E084EA91E00E94EB
:1012E000B1041092AB011092AA011092AD011092BC
:1012F000AC011092AF011092AE0150E040E06FE3FC
:1013000071E08AEA91E0CF910C94B104C0934C0251
:1013100089CF8091AA019091AB01009711F00E94B2
:10132000E20A8091A4019091A501009711F00C941C
:10133000E20A0895052E97FB1EF400940E94B1095D
:1013400057FD07D00E94030A07FC03D04EF40C940B
:10135000B10950954095309521953F4F4F4F5F4FC4
:10136000089590958095709561957F4F8F4F9F4F11
:1013700008950E94250AA59F900DB49F900DA49FEB
:10138000800D911D11240895B7FF0C94B9090E9496
:10139000B909821B930B08952F923F924F925F924F
:1013A0006F927F928F929F92AF92BF92CF92DF9275
:1013B000EF92FF920F931F93CF93DF93CDB7DEB7DA
:1013C000CA1BDB0B0FB6F894DEBF0FBECDBF09946E
:1013D0002A88398848885F846E847D848C849B84C5
:1013E000AA84B984C884DF80EE80FD800C811B81D3
:1013F000AA81B981CE0FD11D0FB6F894DEBF0FBE02
:10140000CDBFED010895A1E21A2EAA1BBB1BFD0161
:101410000DC0AA1FBB1FEE1FFF1FA217B307E407D3
:10142000F50720F0A21BB30BE40BF50B661F771F2B
:10143000881F991F1A9469F760957095809590950B
:101440009B01AC01BD01CF010895A29FB001B39FE4
:10145000C001A39F700D811D1124911DB29F700DBD
:10146000811D1124911D0895991B79E004C0991FD5
:10147000961708F0961B881F7A95C9F780950895EE
:10148000EE0FFF1F0590F491E02D09940F931F9329
:10149000CF93DF938230910510F482E090E0E091E9
:1014A0006902F0916A0230E020E0B0E0A0E03097FD
:1014B00099F42115310509F44AC0281B390B243051
:1014C0003105D8F58A819B816115710589F1FB0190
:1014D00093838283FE0111C0408151810281138177
:1014E00048175907E0F04817590799F4109761F029
:1014F00012960C93129713961C933296CF01DF919C
:10150000CF911F910F9108950093690210936A0281
:10151000F4CF2115310551F04217530738F0A901D6
:10152000DB019A01BD01DF01F801C1CFEF01F9CF65
:1015300090936A0280936902CDCFFE01E20FF31F00
:10154000819391932250310939832883D7CF2091F9
:10155000670230916802232B41F4209115013091EC
:101560001601309368022093670220911301309195
:1015700014012115310541F42DB73EB740911701F3
:1015800050911801241B350BE0916702F09168021D
:10159000E217F307A0F42E1B3F0B2817390778F04A
:1015A000AC014E5F5F4F2417350748F04E0F5F1FA9
:1015B0005093680240936702819391939FCFF0E02C
:1015C000E0E09CCFCF93DF930097E9F0FC013297E6
:1015D00013821282A0916902B0916A02ED0130E09B
:1015E00020E01097A1F420813181820F931F209178
:1015F0006702309168022817390709F061C0F0933B
:101600006802E0936702DF91CF910895EA01CE1757
:10161000DF07E8F54A815B819E0141155105B1F76D
:10162000E901FB83EA8349915991C40FD51FEC1757
:10163000FD0761F4808191810296840F951FE90175
:1016400099838883828193819B838A83F0E0E0E0A1
:1016500012968D919C9113970097B9F52D913C911D
:101660001197CD010296820F931F2091670230914E
:1016700068022817390739F6309751F510926A0237
:1016800010926902B0936802A0936702BCCFD38323
:10169000C28340815181840F951FC817D90761F417
:1016A0004E5F5F4F88819981480F591F5183408356
:1016B0008A819B81938382832115310509F0B0CF04
:1016C000F0936A02E09369029ECFFD01DC01C0CF76
:1016D00013821282D7CFB0E0A0E0E1E7FBE00C94E8
:1016E000CE098C01009751F4CB010E94460A8C016F
:1016F000C801CDB7DEB7E0E10C94EA09FC01E60FC2
:10170000F71F9C0122503109E217F30708F49DC02E
:10171000D901CD91DC911197C617D70798F0C53044
:10172000D10530F3CE0104978617970708F3C61B3F
:10173000D70B2297C193D1936D937C93CF010E94D5
:10174000E20AD6CF5B01AC1ABD0A4C018C0E9D1E7D
:10175000A0916902B0916A02512C412CF12CE12C2C
:10176000109731F58091670290916802881599056C
:1017700009F05CC04616570608F058C08091130166
:1017800090911401009741F48DB79EB740911701D5
:1017900050911801841B950BE817F90708F055C004
:1017A000F0936802E0936702F90171836083A0CF30
:1017B0008D919C91119712966C90129713967C9034
:1017C0001397A815B90559F56C0142E0C40ED11C58
:1017D000CA14DB0420F1AC014A195B09DA01129644
:1017E000159780F06282738251834083D9016D9393
:1017F0007C93E114F10471F0D7011396FC93EE93FE
:10180000129776CF22968C0F9D1FF90191838083CA
:10181000F301EFCFF0936A02E093690269CF4816B3
:10182000590608F42C017D01D3019ACFCB010E9407
:10183000460A7C01009749F0AE01B8010E94280CCD
:10184000C8010E94E20A870153CF10E000E050CFA8
:10185000FB01DC0102C001900D9241505040D8F7CD
:101860000895FB01DC018D91019080190110D9F3DD
:10187000990B0895FB01DC0101900D920020E1F726
:10188000089510E0C2E6D0E004C0FE010E94400AC4
:0C1890002196C336D107C9F7F894FFCFAA
:10189C00040506000102033132333435363738394A
:1018AC002A302300006B0280000000000098029C8C
:1018BC0002A002000000008304A302D102D0024562
:1018CC006E7465722050617373776F72643A200086
:1018DC00416363657373204772616E7465642100A4
:1018EC00456E7465722050617373776F72643A0041
:1018FC0057726F6E672050617373776F726421003B
:10190C00417474656D7074733A2000537973746507
:10191C006D204C6F636B65642100576169742033D3
:10192C0030207365632E2E2E002A003132333400A2
:00000001FF
